{
  "contractName": "HelloTesting",
  "abi": [
    {
      "inputs": [],
      "name": "getMessage",
      "outputs": [
        {
          "internalType": "string",
          "name": "",
          "type": "string"
        }
      ],
      "stateMutability": "pure",
      "type": "function",
      "constant": true
    },
    {
      "inputs": [],
      "name": "getNum",
      "outputs": [
        {
          "internalType": "uint256",
          "name": "",
          "type": "uint256"
        }
      ],
      "stateMutability": "pure",
      "type": "function",
      "constant": true
    }
  ],
  "bytecode": "0x608060405234801561001057600080fd5b506101e2806100206000396000f3fe608060405234801561001057600080fd5b50600436106100365760003560e01c806367e0badb1461003b578063ce6d41de14610059575b600080fd5b610043610077565b60405161005091906100d6565b60405180910390f35b610061610080565b60405161006e919061018a565b60405180910390f35b60006001905090565b60606040518060400160405280600c81526020017f676f6f64206d6f726e696e670000000000000000000000000000000000000000815250905090565b6000819050919050565b6100d0816100bd565b82525050565b60006020820190506100eb60008301846100c7565b92915050565b600081519050919050565b600082825260208201905092915050565b60005b8381101561012b578082015181840152602081019050610110565b8381111561013a576000848401525b50505050565b6000601f19601f8301169050919050565b600061015c826100f1565b61016681856100fc565b935061017681856020860161010d565b61017f81610140565b840191505092915050565b600060208201905081810360008301526101a48184610151565b90509291505056fea2646970667358221220a781eec3d44b2713d2d75eda0aa321bf4665841f55c8992b0b5a98f145701cbc64736f6c634300080d0033",
  "immutableReferences": {},
  "source": "// SPDX-License-Identifier: MIT\r\npragma solidity ^0.8.13;\r\n\r\ncontract HelloTesting {\r\n\r\n    function getMessage()public pure returns (string memory) {\r\n        return \"good morning\";\r\n    }\r\n\r\n    function getNum()public pure returns(uint){\r\n        return 1;\r\n    }\r\n}\r\n  ",
  "sourcePath": "E:\\______LEARNING DATA______\\blockchain projects Dapps\\smart_contract_testing\\new-truffle-project\\contracts\\HelloTesting.sol",
  "compiler": {
    "name": "solc",
    "version": "0.8.13+commit.abaa5c0e.Emscripten.clang"
  },
  "schemaVersion": "3.4.16",
  "updatedAt": "2024-07-21T07:46:28.928Z",
  "networkType": "ethereum",
  "devdoc": {
    "kind": "dev",
    "methods": {},
    "version": 1
  },
  "userdoc": {
    "kind": "user",
    "methods": {},
    "version": 1
  }
}